:020000022000DC
:1060000000000420590103009101030031D0020077
:106010009501030041D0020049D0020000000000B9
:1060200000000000000000000000000059E602002F
:106030009D01030000000000F1E6020001E70200FC
:10604000BD390300A3010300A3010300A301030062
:10605000A3010300A3010300A3010300A3010300A4
:10606000A3010300A3010300A3010300A301030094
:10607000A3010300A3010300A3010300A301030084
:10608000A3010300A3010300A3010300A301030074
:10609000A3010300A3010300A3010300A301030064
:1060A000A3010300A3010300A3010300A301030054
:1060B000A3010300A3010300000000000000000092
:1060C000A3010300A3010300A3010300A301030034
:1060D000A3010300A3010300A3010300A301030024
:1060E000A3010300A3010300A301030000000000BB
:1060F00000000000A301030000000000A301030052
:1061000010B5054C237833B9044B13B10448AFF3F1
:1061100000800123237010BDB80D00200000000096
:106120001C9A04000C4B43B10C480D4910B5AFF359
:1061300000800C48036823B910BD0A48036833B9CE
:106140007047094B002BF7D0BDE810401847064BAD
:10615000002BF5D0184700BF000000001C9A040077
:10616000BC0D0020B80D002000000000154B002BD6
:1061700008BF134B9D46A3F5803A00218B460F467E
:106180001348144A121A19F071FA0F4B002B00D061
:1061900098470E4B002B00D09847002000210400A8
:1061A0000D000D48002802D00C4807F0B1FB18F094
:1061B0004FFD2000290008F0F5F807F0A6FB00BF0E
:1061C00000000800000004200000000001E30200BD
:1061D000B80D00203867002011D90200000000002F
:1061E00008B5054D054C2946204606F001FF4FF045
:1061F0007E5007F0A5FEF6E7DC5604002C110020C7
:1062000013B5094C0121009142F212034FF4F852E8
:1062100020460FF0EDFD054A0549204602B0BDE8D5
:10622000104007F070BB00BFD40D0020000200201A
:106230000D5D0300C36810B504460BB19B68984719
:10624000204610BD38B50546064B45F8283B0446A8
:1062500000F09DF82846FFF7EDFF204600F038F9E2
:10626000204638BD4857040010B50446FFF7EAFF42
:10627000204607F00DFD204610BD0000F8B505468C
:10628000074655F8084B94B90D4E306818B14FF0D9
:10629000FF3109F0F1F83C682CB915B1284607F038
:1062A000E5FE3D602C46306808B109F0FDF8AC42CF
:1062B00004D06C220349044806F0E6FF2046F8BDEE
:1062C00008560020F85604001A57040008B50A20A2
:1062D00007F0CAFCFF21431E00F1090203F8011F69
:1062E0009342FBD1014B186008BD00BF581100203C
:1062F00038B50D4610220021044619F0B7F9EB68B5
:106300001BB15B68294620469847EB68E36020464E
:1063100038BD884238B504460D4606D0FFF78AFFDF
:106320001CB129462046FFF7E3FF204638BD6FF039
:106330001500704703681B69184703689B69184775
:1063400003689B6A184700290CBF6FF018000020F3
:106350007047012070476FF0150070476FF015000F
:10636000704711207047704770B5D0E90823D0E915
:106370000245064612196B4100F09AF8736B2BB177
:1063800006F128001B68BDE87040184770BD1FB5B6
:10639000044607F03FF8204600F094F8636B13B111
:1063A00094F8383083B910220021684619F05EF95C
:1063B000694604F12800FFF7ACFF6846FFF73AFF93
:1063C00007F03EF804B010BD07F070FDEBE70000E9
:1063D00010B5034B03600446FFF734FF204610BDA1
:1063E0008057040010B50446FFF7F2FF204607F07F
:1063F0004FFC204610BD000030B5044685B000F1CA
:10640000280510220021684619F030F9636B1BB192
:106410005B68294668469847636B03932046FFF7FD
:10642000B6FF039B2BB940F23B220649064806F013
:106430002BFF1B68684698476846FFF7FBFE05B0D0
:1064400030BD00BF545704007257040003689B68B6
:1064500018470000094B10B5002203600023C0E973
:106460000223002303614361044606F011FC044942
:10647000A06106F075FB204610BD00BF94570400D4
:106480004D64020010B50446074B23600022002330
:10649000C4E9022300230846A16123616361034923
:1064A00006F05EFB204610BD945704004D640200C8
:1064B00007B5009000F10801806906F090FB03B079
:1064C0005DF804FB00F10801806906F0B1BB000033
:1064D00010B5034B03600446FFF7F4FF204610BDE0
:1064E00094570400036801221B69002118470368C0
:1064F00000221B6911461847704703680BB1084614
:106500001847704713B5044606F084FF237F1BB17C
:1065100006F096FF02B010BD0123237706F090FF2E
:10652000A36804F10800002BF4D0044B002BF1D039
:1065300002A9636941F8044D9847EBE7F96402004A
:1065400038B50C4A01600023044643608360C36091
:10655000036183614261037749B9074D2B6813B921
:1065600003F04CFD2860236855F823306360204613
:1065700038BD00BFFB6402008411002070B560B913
:10658000104C25683DB9202007F05CFB29460646E3
:10659000FFF7D6FF2660206870BD0B4C2378BFF351
:1065A0005B8FDB0701D5094870BD204607F0BEF9B7
:1065B0000028F8D001210548FFF7C2FF204607F068
:1065C000D7F9F0E7601100205C1100206411002071
:1065D000704708B50846FFF7D1FFBDE80840FFF750
:1065E00091BF30B54FF47A7440F271256143B1FB2D
:1065F000F5F189B2032983809DF80C30837198BF2F
:106600000423018098BF03800388B3F5804F88BFBF
:106610004FF4804304FB02F2B2FBF5F292B288BF62
:106620000380032A98BF0423428098BF4380438895
:10663000B3F5804F84BF4FF48043438030BD0022C8
:106640000260828070477EDF70477FDF704780DFA7
:10665000704781DF704784DF704785DF704786DFD2
:106660007047A4DF704708281BD00BD804281ED021
:1066700002D800B10B207047062814D00728F9D1A2
:1066800004207047112810D003D80D2809D01028F5
:10669000F5E743F202039842F2D043F20503984231
:1066A000E8D1062070470220704705207047072078
:1066B0007047836810B40C4623B1204611465DF83C
:1066C000044B18475DF8044B7047C36810B40C4680
:1066D0005BB1D1B2022904D0033901298CBF012159
:1066E000032120465DF8044B18475DF8044B7047C2
:1066F000436910B40C4623B1204611465DF8044BA3
:1067000018475DF8044B70477047704770477047F3
:1067100070477047704770477047704703680BB108
:1067200008461847704703680BB10846184770477A
:10673000034610B107C983E8070070477047034656
:1067400010B107C983E8070070477047034610B1CE
:1067500007C983E8070070477047034610B107C9AF
:1067600083E8070070477047034610B107C983E804
:1067700007007047704730B444688568036814F0B8
:10678000010F4FEA64041CBF2859C358281930BCB4
:10679000184730B444688568036814F0010F4FEA65
:1067A00064041CBF2859C358281930BC184730B49A
:1067B00044688568036814F0010F4FEA64041CBF45
:1067C0002859C358281930BC184730B44468856824
:1067D000036814F0010F4FEA64041CBF2859C35822
:1067E000281930BC184710B442688468036812F056
:1067F000010F4FEA62021CBFA058C358A0185DF8F1
:10680000044B184710B5044607F042FA204610BD65
:1068100038B50446006820B1056907F039FA284602
:10682000F9E7206038BD000010B5044B044640F87D
:10683000043BFFF7EDFF204610BD00BF08580400E1
:1068400010B50446FFF7F0FF204607F021FA204676
:1068500010BD38B50446006820B1056907F018FA84
:106860002846F9E7206038BD10B5044B044640F8CF
:10687000043BFFF7EEFF204610BD00BF1858040090
:1068800010B50446FFF7F0FF204607F001FA204656
:1068900010BD000038B5064B03600446406820B1C7
:1068A000056907F0F5F92846F9E7204638BD00BF2D
:1068B000F857040010B50446FFF7ECFF204607F038
:1068C000E7F9204610BD000038B5064B03600446CA
:1068D000406820B1056907F0DBF92846F9E7204652
:1068E00038BD00BF4858040010B50446FFF7ECFF60
:1068F000204607F0CDF9204610BD000038B5064B04
:1069000003600446406820B1056907F0C1F92846D4
:10691000F9E7204638BD00BF3858040010B50446DA
:10692000FFF7ECFF204607F0B3F9204610BD00004A
:1069300038B5064B03600446406820B1056907F08E
:10694000A7F92846F9E7204638BD00BFA85704003C
:1069500010B50446FFF7ECFF204607F099F92046F2
:1069600010BD000038B5064B03600446406820B1F6
:10697000056907F08DF92846F9E7204638BD00BFC4
:106980002858040010B50446FFF7ECFF204607F036
:106990007FF9204610BD0000084BF0B5421D451E92
:1069A0000A26B1FBF3F404F1300702F80179AA4298
:1069B00003FB141193FBF6F3F3D1F0BDA0860100A5
:1069C00030B5421E431D012100200A2512F8014F57
:1069D000303C934201FB040005FB01F1F6D130BDD0
:1069E0000022026082800A6802608A888280704782
:1069F000037819B143F004030370704723F00403D4
:106A0000FAE738B504469DF8105081B92170217815
:106A10007AB141F00201217020461946FFF7E8FFE4
:106A200023784DB143F008032370204638BD01217F
:106A3000ECE721F00201EEE723F00803F4E710B5DC
:106A40009DF8084081B9017001787AB141F00401E4
:106A5000017002786BB142F00802027003785CB1F9
:106A600043F01003037010BD0121ECE721F0040195
:106A7000EEE722F00802F0E723F01003F2E74B1EE6
:106A8000073113F8012F2AB98B42FAD1003018BF11
:106A9000012070470120704710B50446406B10B1CB
:106AA00003685B6898472046FFF742FF204610BD09
:106AB000704708B5C06803684FF000025B699847EB
:106AC00008BDF0B500234FF0140E0EFB03F285183D
:106AD00095F89F70FE073C4608D444F001039032BD
:106AE00085F89F301044C5F89010F0BD0133052B98
:106AF000EBD10020F0BD70B50023142505FB03F297
:106B0000841894F89F60F60706D5D4F890408C421C
:106B100002D19032104470BD0133052BEED100201C
:106B200070BD10B51446FFF7E6FF40B1037C64F377
:106B3000410303741CB9DBB264F34513037410BD45
:106B400070B5054600220C46FFF7EBFFE8680368C6
:106B50002146DB680122BDE870401847F7B50446BE
:106B6000174601220E46FFF7DCFFE468236839462A
:106B700068469D69FFF710FF6A4631462046A847E0
:106B800003B0F0BD70B50646154601220C46FFF76E
:106B9000C8FFF06803682A4621465B6ABDE870407A
:106BA000184770B5054601220C46FFF7BAFFE868A2
:106BB000036821461B6ABDE87040184770B505465A
:106BC00001220C46FFF7ADFFE86803682146DB6948
:106BD000BDE8704018470000436B70B50546164687
:106BE0002BB940F20D621349134806F04DFBFFF735
:106BF00082FF0446E0B1686B616803689B68984750
:106C0000B0B1227CC3796168C2F3400262F386139B
:106C100063F07F03C371686B036832469B6A9847D1
:106C2000686B6168036832469B69BDE8704018472D
:106C300070BD00BF8C580400D5580400436B70B57C
:106C4000054616462BB940F224620F490F4806F05C
:106C50001BFBFFF750FF0446A0B1686B6168036837
:106C60009B68984770B1237CC2796168C3F3400385
:106C700063F38612C271686B036832469B6ABDE893
:106C80007040184770BD00BF8C580400D5580400F0
:106C900070B51E46436B044615462BB940F23A6266
:106CA00009490A4806F0F0FAFFF725FF014648B106
:106CB000606B49680368DC6A2A463346A446BDE82F
:106CC0007040604770BD00BF8C580400D558040068
:106CD000436B70B5054616462BB94FF4C9620B4994
:106CE0000B4806F0D1FAFFF706FF044668B1686B5F
:106CF000616803689B68984738B1686B616803688E
:106D000032469B69BDE87040184770BD8C5804003E
:106D1000D558040070B51E46436B044615462BB982
:106D200040F25C6209490A4806F0AEFAFFF7E3FE5A
:106D3000014648B1606B49680368DC692A463346FE
:106D4000A446BDE87040604770BD00BF8C58040089
:106D5000D5580400436B70B5054616462BB940F272
:106D60006A620B490B4806F08FFAFFF7C4FE04462F
:106D700068B1686B616803689B68984738B1686B55
:106D80006168036832461B6BBDE87040184770BDF0
:106D90008C580400D5580400436B2DE9F04105469A
:106DA000884617462BB94FF4D2621549154806F0AC
:106DB0006BFAFFF7A0FE0646F8B1686B71680368CE
:106DC0009B6898470446C0B1337CC2797168C3F3AD
:106DD000400363F34512C271686B03683A461B6C4B
:106DE0009847E868E3790268546B41463A46A446FE
:106DF000C3F34013BDE8F0416047BDE8F08100BF38
:106E00008C580400D558040070B51E46436B0546E7
:106E100014462BB940F27E620A490B4806F034FA58
:106E2000FFF769FE014660B1686B49680368E2B22A
:106E30005C6BB2FA82F23346A4465209BDE8704058
:106E4000604770BD8C580400D558040070B50546E5
:106E5000164600220C46FFF764FEE868036866F0F9
:106E60007F022146DB68D2B2984721462846FFF7C9
:106E700042FE58B1C37B03F01803182B06D1E86813
:106E800003684FF000025B692146984770BD00001F
:106E90002DE9FF41436B04460F462BB940F20152E6
:106EA0001349144806F0F0F9FFF725FE0646B0B185
:106EB000656B2B68102200216846D3F8388018F0E3
:106EC000D5FB0D4B00930D4B0393029472686946FA
:106ED0002846C047039B13B19B6868469847E06803
:106EE00003680022DB683946984704B0BDE8F081AA
:106EF0008C580400D5580400DD6F02006858040067
:106F000070B50023142505FB03F2841894F89F60E4
:106F1000F60706D5D4F894408C4202D19032104442
:106F200070BD0133052BEED1002070BD38B504468D
:106F30000025056045600830FFF781FBE37B03F027
:106F4000800365F3C713E373237C03F0C00365F389
:106F500087132374204638BD30B587B00C4601A88E
:106F6000FFF7E4FF05AD01AA2346144603CCAC426B
:106F700018605960224603F10803F6D122781A708E
:106F800007B030BD70B5D0F88050072D20D8172439
:106F90006C43051995F8946061F3470685F8946091
:106FA00004F195011668465045189288AA808434E9
:106FB000044403F1100253F8041B44F8041B9342E9
:106FC000F9D1D0F880300133C0F88030002070BD96
:106FD000062070BD08B5FFF7D5FF08BD08B51346FC
:106FE0003AB1917D806AC943063301F00101FFF790
:106FF000F1FF08BDD1F88020843180E80600704799
:1070000007B50023D2B200938DF80430C2F380009C
:1070100002F0010360F34103C2F3C00060F3820396
:10702000C2F3001262F3C30388B269468DF80030E0
:10703000FFF709FB03B05DF804EBFFF714BB38B5AD
:10704000436B04460D4693B1FFF755FD68B1037CD1
:1070500094F88A20A06ADB074CBF42F0040202F0D9
:10706000FB022946FFF7CCFF38BD042038BD0920BC
:1070700038BDF0B589B00E461968CDF802105968D0
:107080000E9B9DF83C701B88ADF8003003AC134696
:1070900002F1100ECDF806102246186859682546F0
:1070A00003C5083373452C46F7D19DF81C3003F017
:1070B000FE0367F34103102161F38703B0B2694611
:1070C0008DF81C30FFF7C9FA09B0BDE8F040FFF7B2
:1070D000CABA13B59DF814400194049C0094FFF7BC
:1070E000C8FF02B010BDF0B589B00E4603AC002158
:1070F00000910191ADF8081002F1100E27461068BA
:107100005168254603C5083272452C46F7D19DF8D3
:107110001C1041F0010163F341010B46102262F3A0
:10712000870369463A46B0B28DF81C30FFF795FAEE
:1071300009B0BDE8F040FFF796BA08B5FFF7D3FFF6
:1071400008BD0000436B73B5054614462BB940F2E9
:10715000C6321549154806F097F8FFF7D1FE0646E6
:1071600098B1686B716803689B68984768B164B1AF
:10717000C37913F0800F4FEA931303F0010306D095
:1071800022463168A86AFFF7D8FF02B070BD0193AC
:1071900004F110030093224604F112033168A86A37
:1071A000FFF797FFF1E700BF8C580400D5580400A3
:1071B000F0B587B001AC9DF830E00E4602F1100C3E
:1071C000274610685168254603C5083262452C469B
:1071D000F7D19DF814206EF3000263F341021346C9
:1071E000102262F387038DF8143000231A463946C3
:1071F000B0B2FFF734FA07B0BDE8F040FFF733BA9A
:1072000013B59DF810400094FFF7D2FF02B010BDF7
:1072100008B5002388B21A461946FFF720FABDE8E0
:107220000840FFF720BA08B5FFF7F2FF08BD0000DD
:10723000436B73B5044616462BB940F2DF32104952
:10724000104806F021F8FFF75BFE054680B1606B41
:10725000696803689B68984750B15EB1C379A06ABA
:10726000DA090092C3F3801332462968FFF7C8FF9A
:1072700002B070BD2968A06AFFF7D5FFF8E700BF2C
:107280008C580400D55804000220704713B5049CA4
:107290000094FFF7F9FF02B010BD73B5064615461E
:1072A000FFF72EFE044680B17DB1706B6168036804
:1072B0009B68984748B1C3792A690092C3F3401389
:1072C0002A462168B06AFFF7E1FF02B070BD0220D4
:1072D000704708B5FFF7FBFF08BD0000436B70B5B2
:1072E00004460E462BB940F281420B490B4805F08B
:1072F000CBFFFFF700FC054660B13146A06AFFF7FF
:10730000E8FF606B696803681B6E98472946204652
:10731000FFF722FE70BD00BF8C580400D558040052
:1073200008B588B20221FFF792F9BDE80840FFF7DF
:107330009AB908B5FFF7F4FF08BDF0B5DFB20378DE
:107340009DF818609DF81450C7F3800E67F3000392
:107350006EF34103C7F3C00E6EF38203C7F3001749
:1073600067F3C3030F7E67F3061362F3C71303705B
:107370004B7E43708B7E8370C378C6F3400266F306
:10738000000362F34103C6F3800262F38203C6F393
:10739000C00666F3C303C3700379C5F3400265F307
:1073A000000362F34103C5F3800262F38203C5F375
:1073B000C00565F3C3030371F0BDF0B502F190059C
:1073C0005372056102F10C0302F1AC059DF8144003
:1073D0000360456102F1280302F1C3059472436022
:1073E00002F14F0402F13F03856102F1D30583608E
:1073F000C460C56143B10D1D01F1140655F8047B4D
:1074000043F8047BB542F9D101F12005234605F18B
:10741000200455F8046B43F8046BA542F9D101F13F
:1074200040036F32603153F8044B42F8044B8B42F7
:10743000F9D1F0BD38B50A4905464FF48A7006F017
:1074400025FC044650B14FF48A72002118F00EF961
:1074500000236372A372EB692360EC61204638BDA0
:1074600070970400C3698B4205D11A68C26118463F
:1074700006F00EBC13461A682AB19142FAD10A6886
:107480001A600846F4E770472DE9FF47074688462B
:1074900091469A469DF830509DF83460FFF7CAFF38
:1074A000044600B3002325F00C0526F00C060372F9
:1074B0004A468DF800505346394602A88DF80460BC
:1074C000FFF73BFF02A91FFA88F0FFF7BCF805465B
:1074D00018B121463846FFF7C5FF284604B0BDE87D
:1074E000F047FFF7C0B8072004B0BDE8F087C069D7
:1074F00020B143688B4201D00068F9E7704737B587
:107500000C461546FFF7F3FFF8B902F075FD036866
:10751000DB6998470DF10702214601F0B3FF0346EE
:10752000C8B99DF80720012AA0B20AD165F07F01F1
:107530001A46C9B2FFF789F803B0BDE83040FFF73B
:1075400092B81946FFF77FF8F6E700221146A0B27D
:10755000FFF77DF8F0E7042003B030BD08B5FFF772
:10756000CEFF08BD2DE9F0478CB004468846914611
:107570009A469DF850609DF85470FFF75BFF0546F2
:1075800050B326F00C06012327F00C0703724A467D
:107590008DF800605346214602A88DF80470FFF76D
:1075A000CCFE33462A46214604A88DF80070FFF72A
:1075B00004FF04AB02AA00211FFA88F0FFF745F888
:1075C000064618B129462046FFF74CFF30460CB05E
:1075D000BDE8F047FFF747B84FF0080241462046A4
:1075E000FFF7BCFF07200CB0BDE8F08708B5436B80
:1075F0002BB14FF00802806AFFF781FF08BD092018
:1076000008BD10B50446E16919B12046FFF72AFF0D
:10761000F9E710BD08B5FFF7F4FF002008BD08B575
:10762000FFF7F8FF08BD10B50446FFF7F8FF204646
:1076300010BD08B5FFF7DAFF08BD006810B1036898
:107640001B6818477047006D20B183688B4201D0DA
:10765000C068F9E7704710B50446FFF7F4FF28B19A
:1076600003682146DB68BDE81040184710BD70B5BF
:1076700004461546FFF7E7FF30B103682A46214666
:107680009B68BDE87040184770BD70B50025102696
:1076900004463246294640F8045B17F0E7FF3246BD
:1076A000294604F1140017F0E1FF6562A562E56266
:1076B0002563204670BD000010B50B4C2378BFF346
:1076C0005B8FDB070ED4204606F030F950B1074837
:1076D000FFF7DBFF204606F04BF9054A0549034852
:1076E00006F011F9014810BD881100208C1100200E
:1076F000000200200181020010B500F1240200F117
:10770000340352F8040B10B144688C4202D09A4200
:10771000F7D1002010BD10B500F12402002352F86B
:10772000044B8C4206D1083300EB830300225A60DD
:10773000012010BD0133042BF1D1002010BD10B584
:107740000C468988FFF7D8FF28B1036821469B685B
:10775000BDE81040184710BD38B50446E36A2363FE
:10776000206B38B1C36821469847236B002BF5D0B6
:107770001B69F4E7E06A20B1056906F089FA28463A
:10778000F9E7E06204F10800FFF763F804F1140080
:10779000FFF73EF8206A20B1056906F079FA28461D
:1077A000F9E7206238BD10B50446FFF7D5FF012385
:1077B00084F85430206D20B1036821461B69984736
:1077C000F8E784F8540010BD08B5FFF7ECFF08BDDA
:1077D00007494160074901610749C1610022074922
:1077E00002608260426102628162C262704700BFD1
:1077F0001858040008580400385804004858040079
:1078000038B5036A04460D4663B1084A32B938BD3B
:10781000C36829469847636A2BB9236A6362606A22
:107820000028F5D138BD1B69F8E700BFF9640200F4
:107830007FB514460E46054610220021684617F013
:1078400015FF237800961B2B03D01D2B11D004B0FD
:1078500070BD6388ADF8043001238DF80630A3684D
:10786000ADF808306946636803932846FFF7C8FF00
:10787000EDE76388ADF804300223EEE710B5147825
:107880001D2C09D80123A340054C1C402CB913F032
:10789000205F01D0FFF7CCFF10BDFFF7E8FE10BD61
:1078A000AAAA8A0202F01DB810B5102204460021CF
:1078B00017F0DCFE204610BD70B50025044640F8E8
:1078C000045BFFF7F1FF032323760723202663766B
:1078D0001023A376324629466561E561A01917F0A9
:1078E000C5FE3246294604F1400017F0BFFE32467D
:1078F000294604F1600017F0B9FEC4F88050204614
:1079000070BD000010B50B4C2378BFF35B8FDB0715
:107910000ED4204606F00AF850B10748FFF7CCFF16
:10792000204606F025F8054A0549034805F0EBFF17
:10793000014810BDC0110020C41100200002002029
:107940002776020008B5062217F062FDB0FA80F033
:10795000400908BD38B5436B05462BB940F22642B5
:107960001849194805F090FCFFF7C5F8044688B19E
:10797000686B616803689B68984758B195F88A30CE
:107980001B0708D505F13E01FFF7DCFF237C60F300
:107990000413237438BD237C1A46C3F3800363F3B6
:1079A0000412743522742946FFF7CCFF30B92946FA
:1079B00004F10800FFF7C6FF0028EBD0237C43F05A
:1079C0001003E6E78C580400D5580400F0B5436B6B
:1079D00085B004460F46002B50D0FFF78CF80546C3
:1079E00000284DD094F88D301BB994F88A301E07CA
:1079F00048D5002239462046FFF793F839462046FD
:107A0000FFF7A8FF2B7C94F88A60DB0701D546F0CE
:107A1000040694F88B10C1F3C00343F002038DF801
:107A20000830EB7B18064CBFC3F38011C1F3800113
:107A300002A8FEF7DDFF94F88E2094F88B300AB18F
:107A40008DF80830E97B8DF80C300A0604D5C1F3B7
:107A5000801103A8FEF7CCFF2A7C9DF808309DF822
:107A60000C108DF804108DF80030A06A3346C2F374
:107A700000123946FFF708FD05B0F0BD0920FBE70D
:107A80000420F9E70620F7E708B5FFF79FFF08BDD8
:107A90002DE9F04105460E461746FFF72CF804463F
:107AA00040B3FBB2022B06D1C37B03F0E70343F0E4
:107AB0002003E3730EE0DA1E012A05D8C37B03F02E
:107AC000E70343F02203F4E723B9E37B03F0180351
:107AD000082B07D0E86803683A4631465B69BDE881
:107AE000F041184721682846FFF7CEFFE37B43F0BB
:107AF0001003E373BDE8F081F0B5436B85B0044635
:107B00000E46002B52D0FEF7F6FF054600284FD058
:107B100031462046FFF71EFF2B7C94F88A7094F8BC
:107B20008E10DA07AA7B02F00F0248BF47F0040765
:107B300002F00403002936D094F88B100A408DF827
:107B400008205BB1E97B0B0656BF94F88B10C1F39C
:107B50008011C1F3800102A8FEF74AFF94F88B1050
:107B6000AB7B01EA131358078DF80C3009D5EB7B7A
:107B70001A064CBFC3F38011C1F3800103A8FEF7BE
:107B800037FF2A7C9DF808309DF80C108DF8041002
:107B90008DF80030A06A3B46C2F300123146FFF771
:107BA000E1FC05B0F0BD02F00A02C8E70920F8E7E1
:107BB0000420F6E708B5FFF79FFF08BD2DE9F04167
:107BC00090F88D209DF818609DF81C7004460D46B5
:107BD0000AB91B0720D529462046FEF78CFF08B9B5
:107BE000BDE8F081837B66F3030367F307138373B8
:107BF000037C6FF34103037494F88C3033B1E06875
:107C0000036829469B68BDE8F0411847294620468D
:107C1000FFF7D0FFBDE8F081FFF70BFDBDE8F08175
:107C2000436B2DE9F04104460F462BB940F2DD527B
:107C30001F49204805F028FBFEF75DFF0546A8B167
:107C4000606B696803689B689847804670B104F16F
:107C500074063146FFF776FEA0B9314605F10800FB
:107C6000FFF770FE70B92B7C9A0601D5BDE8F08154
:107C700043F020032B74E068036839469B6ABDE833
:107C8000F0411847012239462046FEF74AFF39469F
:107C900004F17A02A06AFFF74CFB31464046FFF739
:107CA00051FE0028E2D000236367B380BDE8F08175
:107CB0008C580400D55804000022426082600261A2
:107CC000014A0160C26070472767020038B5104B57
:107CD0008360104B4361104B036200250F4BC3625E
:107CE0000446056005714571C5608561456205639F
:107CF00029463830FFF7E0FF294604F14C00FFF732
:107D0000DBFF294604F16000FFF7D6FF204638BDAF
:107D1000F8570400085804001858040028580400B4
:107D200010B503460C4607C983E80700E268DA602D
:107D300000221A61184610BD70B5044686B0236B48
:107D40006363606B38B1C36821469847636B002B4F
:107D5000F5D01B69F4E7206B20B1056905F098FFA9
:107D60002846F9E7E5682063207160712DB12E691E
:107D7000284605F08DFF3546F8E704F11800E56068
:107D8000FEF746FD04F12400FEF763FD294601A835
:107D9000FFF792FF01A904F13800FFF7C1FF294660
:107DA00001A8FFF789FF01A904F14C00FFF7B8FF14
:107DB000294601A8FFF780FF01A904F16000FFF741
:107DC000AFFF284606B070BDC36810B504460BB1BE
:107DD0009B689847204610BDC36810B504460BB198
:107DE0009B689847204610BD08B5102217F010FB7D
:107DF000003018BF012008BD2DE9F04198B0804641
:107E00000F46684616461D461E9CFFF74DFD394637
:107E10004046FFF76CFB002844D069463046FFF728
:107E2000E3FF804650B132460DF1170306F1100111
:107E300052F8040B43F8040B8A42F9D169462846EC
:107E4000FFF7D2FF20B169462046FFF7CDFF90B97A
:107E5000BFB2B8F1000F0AD1414650B902463846C8
:107E6000FEF7F9FB18B0BDE8F041FEF7FCBB04A932
:107E7000F3E70EAAF3E72B460DF13F0205F11001DF
:107E800053F8045B42F8045B8B42F9D123460DF1B1
:107E90004F0204F1100153F8044B42F8044B8B429B
:107EA000F9D1D5E7062018B0BDE8F08113B5049CE0
:107EB0000094FFF7A1FF02B010BD73B50122044684
:107EC0000D46FEF72EFE29462046FEF714FEE0B1D1
:107ED000636B41681A68184692689047A8B104F12C
:107EE0003E063146FFF72EFD88B104F1540300939E
:107EF00004F1640204F144032946A06AFFF7D6FFA7
:107F00000023C4F83E30A4F8423002B070BD4FF0F8
:107F100002022946A06AFFF721FBF6E710B50346E7
:107F200001F1100251F8044B43F8044B9142F9D18E
:107F300010BDC36810B504460BB19B689847204636
:107F400010BDC36810B504460BB19B689847204626
:107F500010BD00002DE9FF41044600258846FFF7CB
:107F600037FC2C4B6364C4F83480A563E563256457
:107F7000A564E564256584F85450102229466846B6
:107F800017F074FB6E46244B009308F10407234B53
:107F90000294B742039311D03846FFF7CAFF6FB17E
:107FA00010222946384617F061FB039B1BB15B6822
:107FB000694638469847039BC8F810303046FFF7AB
:107FC000B8FF676B10220021304617F04FFB07F116
:107FD0001405134B0093B542124B0294039310D037
:107FE0002846FFF7AEFF65B110220021284617F0A2
:107FF0003DFB039B1BB15B68314628469847039BBA
:108000003B623046FFF79DFF636B20461C6004B067
:10801000BDE8F0811D6702007D7802005C58040015
:108020005776020050580400036913B11B680430EE
:108030001847704730B50A7B8C88012A85B0054601
:108040000B4603D0022A10D005B030BDDA89498929
:10805000ADF806101B25103303928DF804500293DF
:1080600001AA2146FFF7E0FFEEE749892046FEF727
:10807000F8FA1D205989DA898DF804001033ADF81B
:1080800006100392029301AA21462846EAE770B53A
:1080900004460D46FFF710FB2146FFF73CFBFFF7B8
:1080A0000BFB2A466168FFF7BFFF2CB1236820460F
:1080B0005B68BDE87040184770BD07B5037A8DF85E
:1080C000013000230122ADF8023069460E238DF8FD
:1080D00000208DF80430FFF7DAFF03B05DF804FBF1
:1080E00070B500F1240400F134050026206810B1B9
:1080F000FFF7E3FF26600434AC42F7D1002070BDE7
:1081000010B50446FFF7ECFF04F11400FFF719FF68
:10811000201DFFF70EFF204610BD10B50446FFF7E7
:10812000CBFA2146FFF7E8FA08B1FFF7C6FF10BD0A
:1081300070B58D8829460446FFF7DEFA08B1FFF7CF
:10814000BCFF236A33B1294604F114001B68BDE863
:108150007040184770BD0388303B10B504460B2BA8
:1081600018D8DFE803F00606060606060606060C23
:108170001712FFF7A1FA2146FFF7E1FA10BDFFF74A
:108180009BFA2146FFF756FF10BDFFF795FA2146EF
:10819000FFF7CEFF10BD0000F7B50D4602A901E9BB
:1081A0000C00044610220021009F019E17F05EFA89
:1081B00014B127606660A560024BE360204603B0FF
:1081C000F0BD00BF805804002DE9F0431E46436B0C
:1081D00087B0074690462BB94FF48B623649374833
:1081E00005F052F8FEF76DFC054600285FD002ACA2
:1081F00010992046FEF7F4FB94E80300A860A8F16C
:108200000200D0F10008EB7BA98148EB000868F37D
:108210008203EB73D7F834800E99D8F800302046EB
:10822000D3F85890FEF7DCFB314622464046C8475B
:1082300001466860786B0268926890470E998046A4
:108240002046FEF7CDFB0298C8F80000A388A8F8E6
:108250000430F6B276B3B11E4E424E4198F8073064
:1082600066F3000388F80730EB7B1A0656BF97F8D1
:108270008B30C3F38013C3F38003C3B198F8073086
:108280009B0714D57E6B3368D3F820800C4B00938A
:10829000002301939DE80C0039462046FFF77CFF40
:1082A00030466A682146C0472046FFF78DFD07B07B
:1082B000BDE8F0830126D1E78C580400D5580400AE
:1082C0009B72020038B504460D466368A360A0683F
:1082D00038B1C36829469847A368002BF5D01B69BD
:1082E000F4E738BDC368184738B504460D466368DF
:1082F000A360A06838B1C36829469847A368002BDB
:10830000F5D01B69F4E738BD013908B503460429E7
:1083100022D8DFE801F01821030A110003F1380028
:108320009B6BCBB10D4BA3B908BD03F14C00DB6CCB
:1083300093B10A4B6BB908BD03F160001B6E5BB1D2
:10834000064B33B908BD012103F10800FFF7CCFF4C
:1083500008BD1146FFF7C6FF08BD00BFF964020063
:1083600038B5102204460D46002117F07FF91CB1E4
:1083700095E8070084E80700014BE36038BD00BFC3
:10838000745804002DE9F041436B88B005460C4653
:10839000002B34D0FEF7AFFB064618B9042008B016
:1083A000BDE8F081686B716803689B689847002896
:1083B000F4D0F37B5A071DD5C3795B0715D56F6BD6
:1083C0003B680395D3F824800E4B0193002401A948
:1083D00004A80294FFF7C4FF726804A93846C04796
:1083E00004A8FFF7F9FC2046D9E721462846FFF705
:1083F0004BFBD4E721462846FEF721FECFE70920B4
:10840000CDE700BF45710200436B70B505460E46CF
:108410004BB3FEF770FB044608B9042070BD686BCF
:10842000616803689B6898470028F6D0C37913F009
:10843000400FE37B09D09A0717D443F00803E37396
:1084400031462846FFF79EFF70BD227C5B0742F055
:10845000010222743146284602D5FFF715FB70BD94
:10846000FEF7EDFD70BD092070BD002070BD08B5A0
:10847000FFF7CAFF08BD0000F8B5436B05460E467E
:10848000D7B22BB940F24B5219491A4804F0FCFEFE
:10849000FEF731FB044648B3686B616803689B686C
:1084A000984718B317F0080308D090F90730002B4D
:1084B000AABF95F88A300023C3F3C003790702D519
:1084C000C27952060DD523B131462846FFF7DCFAB2
:1084D000F8BDE37B1B0709D431462846FFF752FF5E
:1084E000F8BD237C43F001032374EDE7F8BD00BF22
:1084F0008C580400D5580400F0B5436B89B004468D
:108500002BB94FF4DB620E490E4804F0BDFEFEF7B6
:10851000F2FA064690B1656B2B6803945F690A4BCB
:10852000019301A9002304A80293FFF719FF28462D
:10853000726804A9B84704A8FFF74EFC09B0F0BD63
:108540008C580400D5580400317202002DE9F04324
:108550009946436B8BB0044690462BB940F2AB6210
:108560001349144804F090FEFEF7C5FA0546D8B149
:10857000606B696803689B689847A8B1666B33684D
:1085800005941F690C4B039303A9002306A80493C9
:10859000FFF7E6FECDF80090304643466A6806A92C
:1085A000B84706A8FFF718FC0BB0BDE8F08300BF82
:1085B0008C580400D5580400317202002DE9F047B0
:1085C0008EB080460C46FFF79DF981460668002C68
:1085D00000F09480002E00F0D581A5882946FEF792
:1085E00086FF2388133B07460B2B00F2CB81DFE885
:1085F00013F00C006F008E00A800AE00BD00E80074
:108600009801AD01C901C901B501217BC1F3C003C6
:10861000C1F34002009304A8C1F3800301F00101FB
:10862000FEF7EFF9E17AC1F3C0030093C1F3400212
:10863000C1F3800305A801F00101FEF7E2F94FB391
:1086400097F80890B9F1000F24D19DF814209DF8F7
:10865000103022F00C0223F00C038DF814208DF85A
:10866000002041463A4606A88DF81030FEF7A5FED8
:1086700006AB4A4649462846FDF7E7FF30B3394680
:108680004046FEF7EFFE4FF0080229463046FEF75F
:10869000DDFB1BE0247AC4F3C0030093C4F3400263
:1086A000C4F3800304F0010106A8FEF7C8F99DF8A1
:1086B00010209DF814108DF804108DF800209DF8FE
:1086C0001830E20929463046FFF778FA012415E010
:1086D000B4F8108004F1120739464046FEF7CFF98E
:1086E000044678B138687968ADF8148006AB03C3E6
:1086F00005AA06AB29463046FFF728FF20460EB0F4
:10870000BDE8F08729463046FFF7F6FEDEE7A37B9B
:1087100013F0010F04F1080007D1FEF751F92946C3
:1087200002463046FEF71AFAD0E7FEF749F9294625
:1087300002463046FEF712FA29463046FEF73EFA68
:10874000C4E7227A29463046FEF71CFABEE7247AAF
:10875000012C06D0022CB9D129463046FFF760FA29
:10876000B4E729463046FEF71CFAC7E74FF44070DD
:1087700005F068FA074600F075FAA3680393203302
:10878000049308F160030DF118080593CDF80080FB
:1087900005AB04AA03A9384600F0CFFA2FB138463A
:1087A00000F07AFA384605F073FA41462846FDF79C
:1087B00050FF237BD80789D529463046FFF77DFB3C
:1087C00084E794F80880B8F1010F00F096800DD38B
:1087D000A8F18108B8F10D0F00F29E8001464846CD
:1087E000FEF740FE227A02F00F024EE7027A447A48
:1087F000837A002A74D1A2461C4607F1200841461C
:10880000F88BFEF73CF900286CD01AF0010F16D057
:1088100007F10C0106A8FFF781FB06AA294630469E
:10882000FEF756FA0EAAFB8B22F8243D386A796AC5
:1088300006AB03C306AB29463046FEF76BFAE107E9
:1088400019D507F1900106A8FFF768FB06AA29468B
:108850003046FEF7F3F90EAAB7F8A23022F8243D0D
:10886000394606AB51F8A40F496803C306AB294645
:108870003046FEF70DFAA2071DD507F1AC0106A898
:10888000FFF74CFB06AA29463046FEF763FA97F835
:10889000BC3013F0FE0F14BF4FF001084FF000087A
:1088A00007F1BD0106A8FEF79BF806AB4246294634
:1088B0003046FEF7A9FA630709D507F1C30106A8F8
:1088C000FFF72CFB06AA29463046FEF765FA394623
:1088D0004846FEF7C7FD29463046FEF7D9FAF5E6C9
:1088E0009A468AE707F10C0106A8FFF717FB06AACC
:1088F00029463046FEF770F9BDE720B929463046D3
:10890000FEF7D7F8E2E601464846FEF7ABFD2946FA
:108910003046FEF715F9D9E601464846FEF7A2FDB6
:10892000D4E6237A03F00F04012C08D11F2B06D9BB
:108930004FF0020229463046FFF7AAF8DEE64FF074
:10894000000229463046FFF7A3F8BFE6237A032B3F
:1089500018D129463046FEF7ABF8B7E6217AC1F3C5
:10896000C0030093C1F34002C1F3800306A801F0E5
:108970000101FEF764F89DF8182029463046FFF7FC
:108980007BFDA3E60024B9E675DF704790DF7047F2
:10899000B5DF704769DF70472DE9F7430446FFF7FD
:1089A000DAFB002001F028FB03680646DB699847E4
:1089B000336805465B6A304698470746FEF7A2FFD4
:1089C0002388212B80466ED01BD81B2B00F098806B
:1089D0000CD8102B4FD0112B54D021464046FFF716
:1089E000EDFD2146384600F0A1FF22E01D2B00F0EE
:1089F0008C801F2BF1D104F10801A088FFF7C4FF80
:108A0000EBE7242B5DD017D8222B53D0232BE4D1B6
:108A1000237AA0881B2B28BF1B23002269460192C2
:108A2000ADF80030ADF80230FFF7B0FF80B200289B
:108A3000D3D003B0BDE8F0833A2B4CD0552BCCD12A
:108A40001721A088FFF7A4FF80B20028F1D12B687E
:108A5000002BC2D03368A5885B6A3046984700680F
:108A60000028BAD0E2880368172A1B68A8BF17221B
:108A700029469847B1E704F10802A188284600F08A
:108A800009FEAAE7A6884FF6FF71284600F07CFC95
:108A900094F808903046FFF740FB4A463146284696
:108AA00000F03DFD99E704F10802A188284600F096
:108AB000A3FD92E704F10802A188284600F075FDA5
:108AC0008BE72868002888D0036822895D6BA1881D
:108AD0006389A84781E72B68002B3FF47EAF33689A
:108AE000A588DB6A30469847006800283FF475AFD8
:108AF0006289172AA8BF17222946FEF79EFD6CE758
:108B0000217A284600F040FA67E704F10801284678
:108B100000F05FFC61E70000084B1A7810B502F026
:108B2000FF044AB9012220461A7001F065FA214675
:108B3000BDE81040FDF74DBD10BD00BF0013002083
:108B4000F0B53A4985B0162007F02CFB0BF06CF815
:108B500084B2DCB904AD45F8104D28460BF026F977
:108B600084B29CB9042601230327009A01940DEBDB
:108B700006012020029403948DF804308DF80660DD
:108B8000ADF80870FFF706FF18B10724204605B0BE
:108B9000F0BD009A029401A9402003948DF804309E
:108BA0008DF805308DF806708DF80730FFF7F2FE6E
:108BB0000028EAD11722019401A9ADF8062023204C
:108BC000009A029403948DF80430FFF7E3FE002826
:108BD000DBD1009A019401A91846029403948DF800
:108BE0000460FFF7D7FE0028CFD14FF4C063009A8E
:108BF000029401A9A12003940193FFF7CBFE002862
:108C0000C3D1E3B243F00103009A019401A9A0206B
:108C1000029403948DF80430FFF7BCFE0028B4D111
:108C200028460BF0CDF80028AFD1AFE7198B020032
:108C300080B260B9BFF34F8F0549064BCA6802F492
:108C4000E0621343CB60BFF34F8F00BFFDE7704777
:108C500000ED00E00400FA05014B00221A607047A5
:108C60000413002038B504462546002005F8080BFB
:108C700001F020FC284604F5207503F045FD284648
:108C800002F046FC0321284603F0F8FBB0FA80F01E
:108C900040092070204638BD10B5044600F520700C
:108CA00002F067FC04F1080003F056FD002001F01B
:108CB0001FFC204610BD10B5013A0A440B46581A55
:108CC000541AA04206D21878147803F8014B02F81F
:108CD0000109F4E710BDF0B5136889B007460E46E8
:108CE0006A4603F1200E6D4618685968144603C49D
:108CF000083373452246F7D1294638462022FFF72C
:108D0000DAFF20222946304601F01EFE09B0F0BDF0
:108D100038B50C46096800290546104614BF2022C4
:108D2000002201F049FE21680029284614BF2022B4
:108D30000022BDE83840FFF7BEBFF0B593B004464F
:108D400003A81F4615460E4601F014FD06A801F0C3
:108D500011FD09A802F0CEFB3A4606A92046FFF70E
:108D6000BAFF324609A92046FFF7B5FF2A460CA9EB
:108D70002046FFF7B0FF01210FA801F069FD002395
:108D80000193009309AA06AB03A904F5207001F032
:108D900053FA054620B903AA18A92046FFF7B8FFE1
:108DA00009A802F0D6FB06A801F0EAFC03A801F02E
:108DB000E7FCB5FA85F0400913B0F0BD6DDF7047F0
:108DC00076DF70478ADF70478FDF7047022807D051
:108DD000042803D0431E5842584170474FF0030007
:108DE000704703680BB108461847704703680BB11A
:108DF000084618477047000038B5064B0360044624
:108E0000406820B1056904F043FF2846F9E7204691
:108E100038BD00BFE458040010B50446FFF7ECFF6E
:108E2000204604F035FF204610BD000038B5064B43
:108E300003600446406820B1056904F029FF284614
:108E4000F9E7204638BD00BFF458040010B50446C9
:108E5000FFF7ECFF204604F01BFF204610BD00008A
:108E600038B5064B03600446406820B1056904F03C
:108E70000FFF2846F9E7204638BD00BF045904001B
:108E800010B50446FFF7ECFF204604F001FF204632
:108E900010BD000038B5064B03600446406820B1A1
:108EA000056904F0F5FE2846F9E7204638BD00BF05
:108EB0001459040010B50446FFF7ECFF204604F0F7
:108EC000E7FE204610BD10B51F220446002116F013
:108ED000CDFB0023E37710BD40798011012808D035
:108EE000032803D048B901230B7070470020087095
:108EF000704702230B70002070470420704737B57D
:108F0000C0B20D4614460023032811D8DFE800F054
:108F10001402141602A9284601F8043DFFF7DCFFED
:108F200038B99DF80430012B05D007D3022B03D0AC
:108F3000002003B030BD03232370F9E70123FBE7D2
:108F400013B590F85630013BDBB2044680F856303A
:108F50002BB990F8580063F3410084F85800009151
:108F60008DF80420D4F8A430C4F8A830D4F8A800B0
:108F700040B1C36869469847D4F8A830002BF1D0B7
:108F80001B69F1E702B010BD38B504460D4629B99A
:108F900090F8583061F3000380F85830636E63B185
:108FA000074A32B938BDC36829469847A36E2BB922
:108FB000636EA366A06E0028F5D138BD1B69F8E783
:108FC000F964020070B5044686B0D4F8B030C4F835
:108FD000B430D4F8B40040B1C36821469847D4F8FF
:108FE000B430002BF1D01B69F1E7D4F8B00020B108
:108FF000056904F04DFE2846F9E794F85830C4F8A6
:10900000B00060F3000360F3410384F8583084F843
:10901000560084F85C0004F10A00FFF754FF04F1E5
:109020003400FFF750FF606E20B1056904F030FE98
:109030002846F9E76066D4F8980020B1056904F085
:1090400027FE2846F9E7D4F8A430C4F898002BB1DD
:109050001D69184604F01CFE2B46F8E701AD01938C
:109060000293039395E8070004F16C06C4F8A4305A
:1090700086E80700084AA26795E8070004F1800621
:10908000E36786E80700054AC4F88C20C4F89030EE
:10909000236006B070BD00BFED8D0200E38D0200BD
:1090A00030B50D68C0F8065089884181039C00F1F5
:1090B0000D0182B11568C0F80D5092888A806BB19D
:1090C0001A6882619B88838364B12368C0F81E306C
:1090D000A388438430BDC0F80D20EFE7C0F80D3001
:1090E0008B80F1E7C0F80D408C8030BD37B51D4650
:1090F00000230160027104464371821D00F10C01DE
:1091000002F8013B8A42FBD19DF81C30237304F125
:10911000130204F10D03002103F8011B9342FBD15C
:10912000099B636104F1180204F11E03002102F897
:10913000011B9342FBD104F12402002103F8011B1F
:109140009A42FBD10B9B0093089A0A9B069984F8DC
:1091500024502046FFF7A4FF621D06992846FFF71A
:10916000CEFE204603B030BD0246811D002302F82A
:10917000013B8A42FBD18371C37103724372C360A6
:109180000374437470472DE9F0410C4686B00546E0
:1091900001A890461F469DF83C60FFF7E5FFA388B5
:1091A000ADF808309DF8303020688DF80C309DF80F
:1091B000343001908DF80D3005AA0E9B04932146A2
:1091C00030468DF80A808DF80B708DF81560FFF72A
:1091D00096FED5F88C3001A905F18000984706B0BD
:1091E000BDE8F081002202607047000073B50446BC
:1091F00004F10A05FFF7F6FF0023A022E2802371A5
:10920000238104F129012A4602F8013B9142FBD156
:109210004FF4007262854FF48042114684F8293081
:10922000009304F12C00002304F13406FDF7D9F972
:1092300004F153013246002302F8013B8A42FBD17C
:109240004FF40072A4F8542094F8582084F8533056
:1092500002F0FE0263F3410284F85820174A2266A6
:10926000174AA267174AC4F88C20174AC4F89420FA
:10927000164AC4F8A020164A84F8563084F85C30A8
:109280006366E36623676367E367C4F88030C4F806
:109290008430C4F88830C4F89030C4F89830C4F8EA
:1092A000A430C4F8AC20C4F8B0302846FFF70BFE59
:1092B0003046FFF708FE204602B070BDE4580400B7
:1092C000ED8D0200E38D0200F458040004590400FF
:1092D0001459040070B504460025FFF787FFC4F851
:1092E000B85084F8BC5084F8BD5084F8BE5004F1E6
:1092F000BF0304F1F7021D60C3F8035007339A421D
:10930000F9D104F1F8064022002184F8F7503046E4
:1093100016F0ACF93046FDF79DF81022002104F557
:10932000907016F0A3F90123164A84F83031C4F87E
:10933000F82084F87C31022284F87D31002384F8FF
:10934000785184F8795184F87B5184F8845184F8F9
:10935000855184F87A2104F5C4751846E918E85057
:109360000A79083302F0FE0260F34102202B0A71F1
:10937000F4D14FF6FF7384F83831A4F876312046E3
:1093800070BD00BF80570400A0F87611704707B584
:10939000D9B1D2B16846FFF711FDA0B99DF80030F0
:1093A000C3F34603D8B218B1012801D0062007E064
:1093B0000B7002AB002053F8071D11609B8893804F
:1093C00003B05DF804FB0320FAE70420F8E7FFF799
:1093D000DEBF70B590F8783186B005460C46002B9C
:1093E00048D08B7803F0FE02042A43D1D90741D438
:1093F000FEF788FA014604A8FDF7FCFD059B002B4B
:1094000038D095F87C31022B34D106B070BD002BDA
:109410000CBF02230323267806F00502012A04F17B
:10942000030123D0052A23D006F00600022803D02A
:10943000002A0CBF032000208DF80C30A369029392
:10944000237F94F913208DE80900C6F3C003284652
:10945000FFF799FE95F87431002BD6D005F5B6715B
:10946000002006B0BDE87040FFF7ACBC0020E3E789
:109470000120E1E7A2785308D207C8D4003318BF0F
:109480000123C8E730B5002300EBC30494F88C41F6
:10949000A5070DD500EBC305D5F888518D4207D13E
:1094A00014F0010F14BF012302231370002030BDFC
:1094B0000133042BE8D1184630BD70B5002303F109
:1094C000310500EBC5042679B6070CD4531E40F8CD
:1094D00035105A425A41237962F30003DBB243F05C
:1094E0000203237170BD0133042BE8D170BD30B588
:1094F000002303F1310400EBC404227995070AD557
:1095000000EBC305D5F888518D4204D113466FF3A3
:109510004103237130BD0133042BEAD130BD70B556
:1095200004460D461646FFF7E2FFD0F8B80010B12A
:109530003246FDF7D3FE324629462046FFF700FDAE
:1095400070BD90F88C316FF3410380F88C3190F846
:1095500094316FF3410380F8943190F89C316FF3AC
:10956000410380F89C3190F8A4316FF3410380F8F7
:10957000A431704710B50446FFF724FD024680B9B8
:109580004FF6FF7384F8BC0084F8BD0084F8BE0079
:10959000A4F87631204684F83831FFF7D2FF104620
:1095A00010BD062010BDFFF7E5BFF7B504680E46F5
:1095B000F4B111781E291DD004D851B11A2907D051
:1095C0000B2106E0232901D02A29F9D1062100E048
:1095D0000821236850781D6BFFF7F8FB0746907849
:1095E000FFF7F4FB3B468DF8000032462046A847C3
:1095F00003B0F0BD0421ECE713B50C46137890F8E6
:1096000084115278194090F885318DF80410134078
:109610008DF805300BB98DF8053001A9A0B2FFF720
:10962000D3FB02B010BD38B504460D466368A36095
:10963000A06838B1C36829469847A368002BF5D0C5
:109640001B69F4E738BD10B5044690F8580000F0E7
:10965000FE0040F0020084F8580094F8560090B0E4
:10966000013084F8560017980590169804901598C4
:109670000390149802909DF84C000190129800906D
:1096800006A8FFF733FD06A904F19400FFF7CBFF0E
:1096900010B010BD2DE9F04F8DB28DB0A0F876510D
:1096A000074608AE1446D2798946FFF706FF002325
:1096B00032460DF11F010893B380FFF788FE97F83B
:1096C000782112B102238DF81F30237803F00108AE
:1096D000B2B1E279012A13D197F87A21012A0FD188
:1096E00003F0FE03042B0BD1B8F1000F08D1FEF7F5
:1096F00009F901460AA8FDF77DFC0B9B002B4FD111
:1097000025786D08B8F1000F03D1003518BF012589
:1097100003E0002D0CBF02250325D7F8B80004F1A3
:10972000010A04F1080B60B19DF81F300193E27942
:10973000CDF80CB00296CDF800A02B464946FEF7B6
:1097400043FD97F87831BBB1B8F1000F14D1E3793C
:10975000012B11D1237803F0FE03042B0CD197F8D1
:109760007A31022B08D1404600F046FC03681B6B9F
:1097700098474946FEF77BFE00239DF81F1005938E
:1097800004930191E279CDF80CB00296CDF800A0D7
:109790002B4649463846FFF756FF0DB0BDE8F08F1F
:1097A00013212846FFF70CFBF7E7ACDF7047B0DF6B
:1097B0007047B1DF704766DF70470000C36A044836
:1097C000002B08BF0020003018BF0120704700BFE9
:1097D000F9640200036C0448002B08BF002000302D
:1097E00018BF0120704700BFF964020038B5054674
:1097F0000C46FFF7EFFF38B10023238205F140004C
:10980000EB6C21469847208A38BD10B50022447978
:1098100000F174031046A24207D253F8041B098BCF
:109820008842B8BF08460132F5E710BDF8B5D0F858
:10983000A03104460F4633B1D0F8AC31CBB1D0F8EB
:10984000B831C3B902230C265E4306F5CC70251847
:109850002046FFF7DAFF15F0B1FA34440023C4F8CC
:10986000A001A4F89C31A4F89E31A4F89871284670
:10987000F8BD0123E7E70020F8BD10B5024600233C
:10988000D2F8A0414CB1B2F898418C4205D10C22DB
:1098900002FB030000F5CC7010BD0133032B02F175
:1098A0000C02EDD1002010BD10B5FFF7E6FF044615
:1098B00030B1806815F08AFA0023A360012010BD42
:1098C00010BD70B5044600F124050026D4F8A001AF
:1098D00018B115F07BFAC4F8A0610C34AC42F5D194
:1098E00070BD38B50546FEF727FA0446E0B90146D3
:1098F000502205F1740015F0B9FE2146202205F52D
:10990000B27015F0B3FE10222146C5F8C440C5F868
:10991000C84005F5C37015F0A9FE284685F88441B6
:10992000FFF7CFFF204638BD062038BD2DE9F043B4
:109930000B88512B8FB005460C4662D006D8012B00
:109940006AD0502B0CD00FB0BDE8F083532B23D03E
:1099500050D3572BF7D189790830FEF7C5FCF2E7D1
:10996000CF88427900239A420ED905EBC301B1F8A2
:10997000C810B9420AD105EB8303586F90F8202034
:1099800012F0300F40F07681022107E00133EAE760
:10999000032180E104217EE1CF88052195F805802F
:1099A0000026B04540F27C8105EBC603B3F8C43015
:1099B000BB423AD10629B14600F01F81072900F0C9
:1099C0007981022940F05481A3880993237B8DF883
:1099D0002A30E389ADF82C30123434F8023CADF86B
:1099E0002870ADF82E300C9409A905F11400FEF78B
:1099F00069FCA8E700231A461946A088FFF7D9FE9C
:109A0000A1E78B79012B04D0022B9CD10F89072170
:109A1000C4E70F890621C1E78C882146FFF706FFBE
:109A200000212046FFF7C7FE8DE70136B9E7314632
:109A30002846FFF722FF074608B9AE4924E0C3884D
:109A400033BB22894280A0F80480B86804F1140571
:109A50004A462946184415F00BFDB4F81280FB88DD
:109A60004344FB800021102209A815F0FFFD0223CA
:109A70008DF8243001238DF82A30238AADF82C305C
:109A8000ADF82E800C9509A93046FFF790FE5AE7F5
:109A900081881944884540F0248121894288914277
:109AA000D3D094491EE131462846FFF7FDFE924986
:109AB000EAE731462846FFF7E0FE07460028BCD01B
:109AC0001422002109A815F0D1FDBB887A88ADF8D1
:109AD0002A30FB88ADF82C30BB680C930996ADF8A2
:109AE00028200023984507D005EBC301B1F8C41026
:109AF000914203D00133F5E74FF0FF3305EB8303C9
:109B000009A9586FFFF772FE0028CAD1FB88ADF88B
:109B10000430BB88ADF8063001AABB68798802938F
:109B20003046FFF742FE0028BBD173493046FFF7AD
:109B30003EFE7B88ADF81830A37B8DF81A30BB88C9
:109B4000ADF81C30FB88ADF81E30BB68059605A942
:109B500005F114000893FEF7B5FBC6E014220021BE
:109B600009A815F083FD238A0996ADF82A30102242
:109B7000638AADF82C30002104F1140601A805EB2E
:109B80008909ADF828700C9615F070FD02238DF848
:109B9000043009A90123D9F874008DF80A30FFF7C1
:109BA00025FEBDF82A30ADF80C30BDF82C30ADF8EC
:109BB0000E300C9BADF80800049328B19DF80A30D4
:109BC0006FF300038DF80A3001A9A088FFF7EFFDBD
:109BD000BDF80830002B7FF4B6AEA3880593A37BB5
:109BE0008DF81A30238AADF81C30638AADF81870EE
:109BF000ADF81E30089605A9F7E61422002109A841
:109C000015F034FD05EB8605A38809931022E3893E
:109C1000ADF82A30002105A8ADF8287015F026FD12
:109C20006D6F012328468DF81430FFF7C7FD30B162
:109C300005F12C00AB6B09A99847BDF83400BDF8BD
:109C40003430ADF8180083B90C9A72B19DF81A300F
:109C5000089243F001038DF81A30BDF82A30ADF8B0
:109C60001C30BDF82C30ADF81E3005A9A0880CE7DB
:109C70003A4611E0E17CA37C940643EA012302D535
:109C80009F073FF585AED6067FF584AE13F0010F32
:109C90000CBF04210321828B2846FEF735FB52E6D8
:109CA0000729A37B7FF44FAE053B012B3FF64BAE5C
:109CB0004FF0FF392846FFF7A8FDA37BA688052BA8
:109CC0003FF4F1AE062B3FF4F4AE042B7FF446AF25
:109CD000B4F81080B4F8129009EB080383427FF7C0
:109CE000A6AE06493046FFF762FD31462846FFF72B
:109CF000DBFD28E62C5904001C5904003C590400E3
:109D000041DF704765DF704700797047103070475A
:109D100000F5DE7070471030704703685B6B1847C2
:109D200008B503689B689847BDE80840FFF7E8BF9F
:109D30001FB50379F3B1144C2278B2B902A8FFF72A
:109D4000E1FFD0B9BDF80A30592B16D19DF8083083
:109D5000DA1F012ABDF80C2009D800920B4A0C48E2
:109D6000202116F06DF801232370094803E00092CA
:109D7000084AF4E7084804B010BD20220749044807
:109D800016F0CCFAF1E700BF481500206659040030
:109D900028150020835904004C590400A8590400D8
:109DA00038B503790546F3B109F07AFFE8B9D5F87B
:109DB000B80188B92B682846DB6A9847FDF704FD8F
:109DC000044670B905F11000FFF7EDFB044640B9F9
:109DD000FEF742FF2C7104E0FDF764FD0446002805
:109DE000E8D0204638BD0924FBE70524F9E7000048
:109DF00008B503F00FFB074B1A783AB100221A702E
:109E000003F01EFBBDE8084009F090BFBDE8084024
:109E100003F016BB001300200379F7B507460E4682
:109E2000154683B100230A24019300938DF8044062
:109E30003046FCF7A3FBEB6800906946284698473C
:109E4000204603B0F0BDB960FEF77AFE044620B9A3
:109E500001233B7100900190EAE70C20F1E700003C
:109E6000174B10B50446036000F5F270FCF72CFDAB
:109E700004F5EC70FCF742FD04F5E670FCF7D4FC49
:109E800004F5E070FCF7F0FC0E4BC4F8083104F563
:109E90008470FCF7D7F904F1BC00FEF7FBFF04F176
:109EA000B000FEF7DDFF04F1A400FEF7BFFF04F1F0
:109EB0007000FEF7A1FF2046FCF78AFB204610BD8C
:109EC000B85904008057040010B50446FFF7C8FFD6
:109ED000204603F0DDFE204610BD10B50446FDF718
:109EE000F5FE04F1740304F1C402002143F8041BDD
:109EF0009342FBD104F5B272002119605960083316
:109F00009A42FAD1134604F5C271002243F8042B99
:109F10009942FBD184F8842104F5C37304F5CB7214
:109F2000002123F8021B9342FBD104F5CC7304F506
:109F3000DE7100221A605A609A600C338B42F9D1AC
:109F4000204610BD38B5D0F8B831044643B94FF4B7
:109F5000DE7003F077FE0546FFF7BFFFC4F8B85187
:109F6000D4F8B80138BD38B5D0F8B831044643B993
:109F70004FF4DE7003F066FE0546FFF7AEFFC4F84F
:109F8000B851D4F8B80138BD38B50446094B036060
:109F90000025057185601030FFF79CF9C4F8B851B1
:109FA000FDF78AFB014604F5DE70FDF7D3FF20467E
:109FB00038BD00BFB859040010B50B4C2378BFF36F
:109FC0005B8FDB070ED4204603F0B0FC50B107488E
:109FD000FFF7DAFF204603F0CBFC054A05490348AA
:109FE00003F091FC014810BD08130020101300205D
:109FF00000020020619E0200FFF7DEBFFFF7DCBF1A
:10A00000F8B5394F0446FDF77DFC3D78BFF35B8F13
:10A0100015F00105064664D1384603F087FC002898
:10A020005FD0236820461B6A304C9847304B6561EF
:10A0300084E828002F4B2361B83004F11003E3605B
:10A04000E0622D4BA561E5612562656204F138008F
:10A050002363A6626563FCF7F2FA04F13E00FCF7A5
:10A06000EEFA04F14400FDF71FFC04F15400FDF783
:10A070001BFC04F16400FDF717FC04F17400FCF70D
:10A08000DEFA04F17A00FDF70FFC0F2384F88B3021
:10A09000012684F88A5004F1900084F88C5084F8EA
:10A0A0008D6084F88E50FCF741FF04F1A400FCF7AA
:10A0B0003DFF04F1B800FCF739FF04F1CC00FCF7D8
:10A0C00035FF04F1E000FCF731FFA36A38461C605D
:10A0D00084F8646003F04CFC084A0949204603F008
:10A0E00012FC0248F8BD00BF0C1300204C150020E4
:10A0F000A8570400B85704004016002000020020B2
:10A10000996A020008B5064B06490122C3F80025EA
:10A110000CF020FB002814BF6FF06F00002008BD7A
:10A1200000A002504416002008B50CF07FFB024B43
:10A130000022C3F8002508BD00A002500138C0B2BB
:10A140000B289ABF014B185C0C207047F45904008F
:10A150002E4B98422CD8043B984220D2283B984260
:10A1600014D8073B98421AD2253B984209D8013BA4
:10A17000984249D220B1083B984245D06FF06F0019
:10A180007047234B98423FD00C33F5E7214B984260
:10A1900007D8043B984202D2173B9842EED11E48A2
:10A1A0007047A0F57000A0F657000128E6D8F6E742
:10A1B0001A4B984216D8013B9842F0D2193B98426C
:10A1C00008D8013B9842EAD2A0F570006FF407630B
:10A1D0001844EAE7124B9842E1D001339842CDD1BE
:10A1E00010487047104B984207D8023B9842D6D28D
:10A1F0002B3B9842C2D10D4870470D4B0344012BB5
:10A20000BCD86FF0710070470A4870476408F000CE
:10A210000F08F0005508F00080B0FFFF9108F00033
:10A220008308F00000B2FFFF3223F00000B3FFFF0D
:10A2300002DC0FFF80B3FFFF2DE9F04F9946C36D9D
:10A24000B1B00733DB088046007807919346099345
:10A25000FFF774FF0DF0D6F8D8F85C30059007339F
:10A26000DB081946012006930A9313F07FFD074689
:10A27000002800F0BC805946404601F0FBF9044636
:10A28000002840F0A180059B002B65D00BAE4FF05D
:10A29000910A01465246304615F0E8F94FF41F6125
:10A2A000012013F063FD0546002800F09E80224641
:10A2B0008DE8400409AB5946404601F08BF904464D
:10A2C000002840F0968003460190099A0095314697
:10A2D00005980CF01FFCFFF73BFF0446002840F0F8
:10A2E000888001465246304615F0C0F9484600F0D5
:10A2F00025FB31460246484600F05EFB0446002836
:10A3000077D1484600F01AFB05F55D7802463146E4
:10A31000434605980CF046FDFFF71AFF51460446E8
:10A32000304602F029FA002C63D105F2A4630093B1
:10A330003A460AAB414628460CF0A0FDFFF708FF5D
:10A340000446002855D14FF41F660A9A07983946EB
:10A3500000F0FAFA044630E098F80030092B41D1B9
:10A360004FF4D071012013F001FD054600283CD0C8
:10A3700000F12006484600F0E1FA31460246484620
:10A3800000F01AFB044650BB099A2946584600F0D3
:10A3900013FB044618BB05F1400302932023324609
:10A3A00001930AA9009538460FF0FEFBFFF7D0FE97
:10A3B0004FF4D07604460028C7D02846314602F034
:10A3C000DBF9284614F002FD3846069902F0D4F96C
:10A3D000384614F0FBFC204631B0BDE8F08F4FF456
:10A3E000D076EAE76FF07104EEE7034CECE7024C3D
:10A3F000F1E74FF41F66E0E780B2FFFF0146014836
:10A400000CF0BEBA384600207047000070B588B026
:10A410001D46154B029307AB019306AB0E4614463F
:10A420000093014605AB002210480EF071FDC0B943
:10A43000079B0699A34288BF0794079A2A6001F1F7
:10A4400008042146304615F013F82B6821460022F7
:10A4500013F1FF3302D2002008B070BD0A70013141
:10A46000F6E74FF0FF30F7E7242E002038460020B3
:10A47000F0B50F4C89B020460D4616461F46FBF737
:10A48000FDFE03F0FBFD01A8FFF7B8FF29463B46A0
:10A49000324601A8FFF7BAFF054601A8FFF7B4FF4F
:10A4A0002046FBF7EBFE03F007FE284609B0F0BD9F
:10A4B0000846002010B50C48FBF7E0FE03F0DEFD77
:10A4C0000A48D0F8E4300133012BC0F8E43009D158
:10A4D000FFF718FE04460448FBF7D0FE03F0ECFD3E
:10A4E000204610BD0024F6E708460020384600202C
:10A4F00010B50D480D4CFBF7C1FE03F0BFFDD4F8BD
:10A50000E430013B002BC4F8E43005DC2046FFF7C3
:10A510000BFE0023C4F8E4300348FBF7AFFEBDE8B0
:10A52000104003F0C9BD00BF084600203846002097
:10A53000A2F1300310B5DCB2092C88BFFF23036001
:10A54000A2F14103052B9CBFA2F137030360A2F1E6
:10A550006103052B9CBF573A026003688B422CBFF6
:10A560006FF00500002010BD0023F0B516461C4614
:10A57000844203D102EB8402BBB9F0BDD6F800E0FF
:10A58000AEEB0305356051F82470BD422CBF4FF08F
:10A59000000C4FF0010CED1B734594BF63460CF1AA
:10A5A000010346F8045B0134E2E71168C81A8B42E4
:10A5B00042F8040B94BF00230123DDE7F0B5054604
:10A5C0000E46074600240F2F46D805F00F05072D2D
:10A5D00037D956F8040B1168E3FB601442F8041BEA
:10A5E00056F8040B1168E3FB601442F8041B56F89C
:10A5F000040B1168E3FB601442F8041B56F8040BCB
:10A600001168E3FB601442F8041B56F8040B116850
:10A61000E3FB601442F8041B56F8040B1168E3FBDB
:10A62000601442F8041B56F8040B1168E3FB601435
:10A6300042F8041B56F8040B1168E3FB601442F85F
:10A64000041B05F00705002D78D1136823449C42B4
:10A6500042F8043B7BD8F0BD56F8040B1168E3FBCD
:10A66000601442F8041B56F8040B1168E3FB6014F5
:10A6700042F8041B56F8040B1168E3FB601442F81F
:10A68000041B56F8040B1168E3FB601442F8041B2A
:10A6900056F8040B1168E3FB601442F8041B56F8EB
:10A6A000040B1168E3FB601442F8041B56F8040B1A
:10A6B0001168E3FB601442F8041B56F8040B1168A0
:10A6C000E3FB601442F8041B56F8040B1168E3FB2B
:10A6D000601442F8041B56F8040B1168E3FB601485
:10A6E00042F8041B56F8040B1168E3FB601442F8AF
:10A6F000041B56F8040B1168E3FB601442F8041BBA
:10A7000056F8040B1168E3FB601442F8041B56F87A
:10A71000040B1168E3FB601442F8041B56F8040BA9
:10A720001168E3FB601442F8041B56F8040B11682F
:10A73000E3FB601442F8041B103F44E756F8040B97
:10A740001168E3FB601442F8041B013D7BE7012420
:10A750007BE701F18041013900EB8101884200D99A
:10A76000704703680A681BBA12BA40F8042B41F814
:10A770000439F3E7012303600023436083607047DB
:10A7800010B5044668B1806830B16168890001F095
:10A79000F3FFA06814F01AFB012323600023636019
:10A7A000A36010BD42F2107399422DE9F0410446B6
:10A7B0000E4603D96FF00F00BDE8F0814568A9424D
:10A7C00017D90421304613F0D1FA80460028F1D081
:10A7D000A7685FB1AD002A46394614F049FE3846F5
:10A7E000294601F0C9FFA06814F0F0FA6660C4F8C9
:10A7F00008800020BDE8F0818842F8B506460F4683
:10A8000003D08D681DB9FFF7BBFF0020F8BD4C6871
:10A81000013C1CB155F82430002BF9D072683B681C
:10A8200033600134944205D921463046FFF7BAFF20
:10A8300040B1F8BDB068121B9200002100EB84000B
:10A8400014F014FFA200B968B06814F011FEDCE740
:10A8500070B50E4601210446FFF7A4FF054688B9EE
:10A86000626801469200A06814F000FFA36886EABF
:10A87000E672002EA2EBE6721A60B4BF4FF0FF330F
:10A8800001232360284670BD4368B1EB431F3FBFDF
:10A8900083684A0901F01F0153F822003ABFC840FB
:10A8A00000F0010000207047012AF8B507460C4669
:10A8B00015464FEA51161CD84368B1EB431F10D21E
:10A8C000B96804F01F04012303FA04F251F826309A
:10A8D00005FA04F423EA02031C4341F82640002051
:10A8E000F8BD002AFBD0711CFFF75CFF0028E7D001
:10A8F000F8BD6FF00300F8BD436810B5E3B15A1E10
:10A9000003F18043013B9B0081687AB951F8221022
:10A9100000204FF00043194204D1013020284FEAB3
:10A920005303F8D1C0EB4210203010BDCC58043B8B
:10A93000002CEBD1013AE7E7184610BD08B5FFF748
:10A94000DBFF0730C00808BD2DE9F04112F0030419
:10A9500018BF0124436804EB92049C4207468846D2
:10A96000154608D100213846FFF772FF064688B128
:10A970003046BDE8F081FFF703FF01233B60002371
:10A980007B60BB6021463846FFF70CFF0646002877
:10A99000E8D0EDE7B8F1000FEAD0BB68C5EB840062
:10A9A0002A464146184414F063FD002CE0D02146AD
:10A9B000B868FFF7CEFEDBE7F8B5054608466C68D9
:10A9C000A400944210D31346A34214D023F0030EE4
:10A9D000AF6803F00301CE0057F80E10F14011F0FC
:10A9E000FF0F1AD10133EFE7121B8E18002114F06C
:10A9F0003DFE30462246104400239A4201D10020F9
:10AA0000F8BD23F00306AF6803F00301CC00B95989
:10AA1000E14000F8011D0133EFE76FF00700F8BDDA
:10AA2000F8B506460C464D0901F01F07FFF764FF15
:10AA300073682044B0EB431F03D875B94FBB0020A7
:10AA4000F8BD10F01F0118BF012101EB5011304675
:10AA5000FFF7A8FE0028F0D0F8BD736803F180422C
:10AA6000013A6FF0030192006943AB420AD803F147
:10AA70008043013B9B000022191DDFD0B168CA5002
:10AA8000043BF9E7B0688418013B64588450043AE9
:10AA9000EBE7D6F804E0AB000021C7F1200C7545C8
:10AAA000CDD2B468E05800FA07F20A43E25001350B
:10AAB000043320FA0CF1F2E74268F0B54C099442F5
:10AAC00001F01F0101D805D171B30021BDE8F040AC
:10AAD000FFF7BEBE54BB39B102F18043013B9B007E
:10AAE0000025C1F1200EA2B90020F0BD85681E1915
:10AAF00055F8266045F823600133151BAB42F5D3AA
:10AB0000AB0000249542E6D286680135F450043348
:10AB1000F8E78768FE5826FA01F42C43FC50013A06
:10AB2000043B06FA0EF5DEE7002CDDD00023E4E757
:10AB3000436870B503F18042013A92004BB94C680A
:10AB400004F18042013A920054B9181C18BF012048
:10AB500070BD8468A458043A002CF0D1013BEDE7A5
:10AB60008D68AE58043A0EB9013CEDE79C4211D312
:10AB700012D803F18042013A92000BB9184670BD19
:10AB800081688C58A9588C4204D8A2F1040203D3DE
:10AB9000013BF2E7012070BD4FF0FF3070BD43680C
:10ABA00070B503F18042013A92003BB94C6804F160
:10ABB0008042013A920044B97BB923E08468A458EA
:10ABC000043A002CF2D1013BEFE78D68AE58043A0D
:10ABD0000EB9013CEFE79C4202D20268104670BDFC
:10ABE000096801D94A42F9E70268002A01DD002913
:10ABF00016DB002901DD002A14DB03F18041013955
:10AC000089000BB91A46E9E7846866586C58A64271
:10AC1000E4D8A1F1040101D25242DFE7013BF0E7A1
:10AC20000122DBE74FF0FF32D8E71FB581EAE1737D
:10AC3000A3EBE17300290093B4BF4FF0FF3301236E
:10AC4000019301A901230293CDF80CD0FFF7A7FFD0
:10AC500005B05DF804FB90422DE9F04105460C4635
:10AC6000174602D0884230D13C46676801232B60EA
:10AC700007F18043013B9B007FBB39462846FFF725
:10AC800091FD064630BBAB68D4F808C01A460446AE
:10AC90000146B94228D18F003B44DCB16A68914239
:10ACA00001F1010806D341462846FFF77BFD58BB5A
:10ACB000AB683B441A682244944243F8042B94BF87
:10ACC0000024012441460437E7E7FFF795FD0646D7
:10ACD0000028C9D03046BDE8F081A268D258043BB4
:10ACE000002ACAD1013FC7E710685CF821E02418A8
:10ACF00074442CBF0120002042F8044B0131A645CA
:10AD000094BF0446441CC4E70646E3E7F0B50F468B
:10AD100085B00646114638461446FFF709FF00285D
:10AD200032DB01230193B4424FF0000302930393FB
:10AD300006D1214601A8FFF75FFD0546B8B901AC71
:10AD4000B7420DD160680123336000F18043013BBD
:10AD50009B0090B9B268A168FFF706FC002506E0E9
:10AD600039463046FFF748FD05460028EAD001A8DD
:10AD7000FFF706FD284605B0F0BDA268D258043B97
:10AD8000002AE7D10138E4E76FF00905F2E7F8B5EA
:10AD90000C681368634305460F46164616D51146E0
:10ADA0003846FFF7C5FE002806DB324639462846FE
:10ADB000FFF7ACFF40B1F8BD3A4631462846FFF7F1
:10ADC000A5FF0028F7D164422C60F4E7FFF743FFAA
:10ADD000F0E7F8B50C6813686343002B05460F468F
:10ADE000164616DD11463846FFF7A2FE002806DBA0
:10ADF000324639462846FFF789FF40B1F8BD3A464A
:10AE000031462846FFF782FF0028F7D164422C60C4
:10AE1000F4E7FFF720FFF0E71FB582EAE273A3EB48
:10AE2000E273002A0093B4BF4FF0FF330123019374
:10AE300001AA01230293CDF80CD0FFF7A8FF05B0BB
:10AE40005DF804FB1FB582EAE273A3EBE273002A0C
:10AE50000093B4BF4FF0FF330123019301AA0123F4
:10AE60000293CDF80CD0FFF7B4FF05B05DF804FBFA
:10AE70002DE9F04786B00023154688424FF00102C5
:10AE800081460E468DE80C000293039204930593CD
:10AE900005D16846FFF7B0FC044688BB6E46A9455D
:10AEA00006D1494603A8FFF7A7FC044640BB03AD03
:10AEB000D6F804A00AF18043013B9B00BAF1000FD1
:10AEC00028D16F6807F18043013B9B0057BB0AEB19
:10AED00007014846FFF766FC044688B90146484624
:10AEE000FFF7B6FC044658B907F1804808F1FF386F
:10AEF0004FEA8808EFB932682B685343C9F800302D
:10AF000003A8FFF73DFC6846FFF73AFC204606B071
:10AF1000BDE8F087B268D258043B002AD1D10AF1CB
:10AF2000FF3ACBE7AA68D258043B002ACFD1013FB1
:10AF3000CCE7AB68D9F8082053F80830B168424430
:10AF40005046FFF73BFB013FA8F10408D2E71FB5CD
:10AF50000123009201AA01930293CDF80CD0FFF7D0
:10AF600087FF05B05DF804FB2DE9FF478B1E0E2B14
:10AF700006468946904605D96FF00304204604B082
:10AF8000BDE8F08701230024104601930294039446
:10AF900015F056F9B9F1100F05463ED1B0F1804FCA
:10AFA000EAD2830013F01C0F0CBF2146012101EBF4
:10AFB00053113046FFF7F6FB044690B90146304680
:10AFC000FFF746FC044660B907460DB9002408E0C7
:10AFD000012D0AD198F800302D2B06D14FF0FF3308
:10AFE000336001A8FFF7CCFBC8E7013D102118F83A
:10AFF00005206846FFF79CFA002843D1F808009B1B
:10B00000B168BA0002F01C0203FA02F251F82030D3
:10B01000134341F820300137D7E721463046FFF788
:10B0200017FC04460028DCD107464FF0FF3AAF4238
:10B03000CCD03FB998F800302D2B03D1C6F800A032
:10B040000137F4E718F8072049466846FFF770FA19
:10B0500004460028C5D14A46314601A8FFF777FFCC
:10B0600004460028BDD13368009A012B01A930465F
:10B0700005D1FFF7D1FE04460028E1D0B1E7FFF784
:10B08000E1FEF8E70446ACE72DE9F04F9BB00F4630
:10B0900001900021184690460393FFF7C6FD002853
:10B0A00000F0A3810024012603990B9640460C94DE
:10B0B0000D940E960F941094119612941394149666
:10B0C00015941694179618941994FFF731FDA04221
:10B0D00026DA019B2BB9DFB9002420461BB0BDE85E
:10B0E000F08F21460198FFF7B3FB04460028F2D009
:10B0F0000BA8FFF745FB0EA8FFF742FB11A8FFF7CF
:10B100003FFB14A8FFF73CFB17A8FFF739FBE4E768
:10B1100041463846FFF770FB04460028E8D1DBE7DC
:10B1200041460BA8FFF768FB04460028E0D10EADAE
:10B1300003992846FFF760FB04460028D8D1D8F8C9
:10B1400004100E96023111A80B96FFF72BFB044654
:10B150000028CDD1014611A8FFF77AFB044600284C
:10B16000C6D1022114A8FFF71DFB04460028BFD159
:10B17000032117A8FFF716FB04460028B8D128467C
:10B18000FFF7BAFB00F01F001F2878D0C0F11F03A3
:10B1900019460BA80293FFF743FC04460028A7D1E9
:10B1A00002992846FFF73CFC04460028A0D10C9EDB
:10B1B000DDF83CA006F1FF390AF1FF33A9EB030BE0
:10B1C00000934FEA4B13194628460693FFF728FCD5
:10B1D000044600288CD14FEA8B0B29460BA8FFF7B9
:10B1E000DEFC00284DDA06992846FFF765FC044688
:10B1F00000287FF47DAF009B9B000693043B06F183
:10B200008045089306F10063013D013B06F180464D
:10B21000A5EB0A05023EA3EB0A0AAD004FEA4A1A63
:10B22000B600009B99453BD8019B5BB111A918461C
:10B23000FFF7E2FA08BB039BD8F800201B685343D2
:10B24000019A1360002F3FF453AF02990BA8FFF748
:10B2500033FC90B9D8F800300B930BA93846FFF7B0
:10B26000CBFA0146002840F0BE803846FFF7DDFCEF
:10B2700000287FF43DAF01233B60044638E7029489
:10B2800095E7139951F80B20013241F80B200BA9D7
:10B290002A460846FFF79DFD044600289DD027E773
:10B2A000331D06980D99109A09931258CB5813988C
:10B2B000934279D34FF0FF334351139A53590133DB
:10B2C0005351331F9B46139A5359013B535100214D
:10B2D00014A8FFF7BDFA0028CFD10099169B109A49
:10B2E00000297ED0089951581960069952585A6021
:10B2F000139B14A908465A59FFF729FE0146002856
:10B3000071D117A8FFF7A4FA0028B6D1B9F1010F3F
:10B310000D9A199B1CBF5946505818609159596095
:10B32000099952589A6017A914A8FFF738FC002809
:10B33000C9DC139B0EA95A5914A8FFF708FE002870
:10B340009BD1514614A8FFF76BFB002895D10BA9A0
:10B35000084614AAFFF73DFD0146002843D10BA87B
:10B36000FFF763FC002818DA0EA914A8FFF744FAC7
:10B37000002882D1514614A8FFF752FB00287FF421
:10B380007CAF0BA914AA0846FFF701FD00287FF443
:10B3900074AF139A5359013B535109F1FF39043DDE
:10B3A000AAF1200A043E3CE7284407908859AAB134
:10B3B000059300230493DDE904BC4BEA000B5846D7
:10B3C000614619F0E7FF00234FF0FF328B4208BFC0
:10B3D000824200D21046079B18606EE74FF0FF30A4
:10B3E000F9E7009980E70C4682E66FF00B0474E6FB
:10B3F00070B504460D46104600211646FFF715FCB1
:10B40000002824DB2A46334621460020FFF73CFE75
:10B41000054638B1284670BD324621462046FFF722
:10B42000B6FC90B900212046FFF7FFFB0028F3DBB4
:10B4300031462046FFF7B3FB0028EBDB32462146BE
:10B440002046FFF7C6FC0028F2D00546E2E76FF081
:10B450000905DFE7036B2BB1C36B002B0CBF022088
:10B4600001207047184670474B6E70B504460D4674
:10B470002BB90A1DBDE870400146FFF7B9BF03684C
:10B48000002B09DB2046FFF737FAAB6DB0EB430F1B
:10B4900008D9174E304670BD0021FFF7C6FB0028C3
:10B4A000F0D0F6E76B6E2046984706460028F1D1AB
:10B4B00004352368002B04DA00212046FFF7B5FB92
:10B4C00068B929462046FFF76AFB0028E2DB2A46D6
:10B4D00021462046FFF71AFC0028F2D006E02A4653
:10B4E00021462046FFF753FC0028E2D00646D1E76C
:10B4F00080B0FFFF10B50446FFF73CF904F10C00E3
:10B50000FFF738F904F11800BDE81040FFF732B931
:10B5100038B50025044600F8045BFFF72BF904F169
:10B520001000FFF727F904F11C00FFF723F904F1DD
:10B530002800FFF7DFFF04F14C00FFF71BF9A565BA
:10B54000E56525666566A566E56625676567A567A1
:10B5500038BD10B5044658B1FFF712F904F10C00DC
:10B56000FFF70EF904F11800BDE81040FFF708B925
:10B5700010BD70B5044658B3036E012B12D00430D1
:10B58000FFF7FEF804F11000FFF7FAF804F11C00D1
:10B59000FFF7F6F804F12800FFF7DBFF04F14C0099
:10B5A000FFF7EEF8636F3BB100252426A36F606FB1
:10B5B0009D4207D313F00AFC20467C21BDE8704071
:10B5C00001F0DAB806FB0500FFF7C3FF0135EDE730
:10B5D00070BD00002DE9F8430E460546002106F136
:10B5E000180091469846089C099FFFF71EFB48B932
:10B5F00017B91F48BDE8F88320700123C8F8003050
:10B60000BDE8F883281DFFF799F90546B9F1000F49
:10B6100017D1420001329742C8F80020E9D32146F1
:10B620000423024601F8013B3046FFF7C5F9E8B9AB
:10B63000691C2A46214406F10C00BDE8F843FFF7D7
:10B64000BBB9B9F1010F10D1431C9F42C8F80030BB
:10B65000CFD3002106F10C00FFF716F92146023086
:10B6600001F8010B2A463046E7E70020BDE8F883E1
:10B6700000B1FFFF2DE9F0410F4686B005460121DC
:10B6800007F11800FFF7D1FA044608B15F4C0CE04F
:10B690002846FFF7DFFE02280BD13846FFF74EF9A8
:10B6A000EB6D0733B0EBD30FF0D8204606B0BDE802
:10B6B000F081012840F0A88021463846FFF7B5FA0E
:10B6C0000028E3DB07F10C0621463046FFF7ADFA10
:10B6D0000028DBDB05F1040841463846FFF75FFA36
:10B6E0000028D3DA41463046FFF759FA0028CDDA70
:10B6F0006846FFF73FF803A8FFF73CF832463146AB
:10B700006846FFF7B5FB044600284FD12946684636
:10B71000FFF7AAFE0446002848D13D4E33683A465A
:10B720000133394603A83360FFF7A2FB0446002823
:10B730003CD1294603A8FFF797FE0446002835D1DF
:10B74000336801333360AB69002B42D103A9032274
:10B750000846FFF777FB044640BB039B002B2CDB1E
:10B7600003A93A460846FFF783FB0446F0B9294689
:10B7700003A8FFF779FE0446C0B9336803A9013373
:10B7800005F11C0208463360FFF701FB044668B967
:10B79000414603A8FFF703FA00282FDA03A96846F9
:10B7A000FFF7FDF9194C002808BF00246846FEF792
:10B7B000E7FF03A8FEF7E4FF77E7002103A8FFF700
:10B7C00034FA0028CCD003A942460846FFF7DFFA36
:10B7D000C1E703A905F110020846FFF7D8FA0446AD
:10B7E0000028E3D1414603A8FFF7D9F90028B7DBC9
:10B7F00003A942460846FFF789FAF0E703A9424643
:10B800000846FFF783FAC1E7024C4EE780B3FFFF1B
:10B810002047002080B0FFFF03680B4403601078CE
:10B82000994294BF0346431C13707047036810B5D8
:10B8300014788B4238BF013C147003685B1A0360B4
:10B8400010BD00002DE9F04344680E2CA5B007465A
:10B8500061D90E3C01230E2C019302945DD80DF1A9
:10B8600054093C2200214846CDF80C9013F0FEFE0E
:10B87000BE68A40006F138052246294648463834F9
:10B8800013F0F6FD34442946002341F8043B8C4272
:10B89000FBD101AE324639463846FFF778FA98BBFD
:10B8A00096E807000DF110084D4688E807000FCD17
:10B8B00007AC06940FC40FCD0FC40FCD0FC495E88D
:10B8C000030084E80300E0214046FFF7F5F8D8B90B
:10B8D000424639463846FFF75AFAA8B9029A072372
:10B8E000934214D3424631463046FFF750FA58B9D6
:10B8F0000F23E02130460293FFF792F820B9324639
:10B9000039463846FFF743FA25B0BDE8F08349F8D9
:10B9100023000133E4E70020F6E70148F4E700BF25
:10B9200080B0FFFF70B54568072D8EB0044636D94C
:10B93000073D0123092D0193029532D804AE282238
:10B9400000213046039613F091FEA168AA001C3135
:10B95000304613F08DFD1F2101A8FFF7ADF8B8B9EF
:10B96000029B02460133FF2120460293FEF79CFF13
:10B9700070B96268082393420CD301A913220846C8
:10B98000FFF7E5FA20B901AA21462046FFF763F93F
:10B990000EB070BDA16841F823000133EBE7002031
:10B9A000F6E70148F4E700BF80B0FFFF38B5536801
:10B9B00003F180431446013B9268494242F8231048
:10B9C000024621460546FFF7A1F910B94FF0FF33B3
:10B9D0002B6038BD70B592B001230021044602935C
:10B9E00005A80D2334228DF803100393049013F05F
:10B9F0003DFE18212046FEF7D5FE0546002840F002
:10BA0000B482A3681A68196B019201A80DF10302B0
:10BA1000FFF702FFA3680DF10302596D01A8FFF7BC
:10BA2000FBFEA3680DF10302196D01A8FFF7F4FEF8
:10BA3000A3680DF10302D96D01A8FFF7F7FEA36813
:10BA4000019A1A609DF903105B68019300298DF833
:10BA500003500DF1030280F28B82494201A8FFF7E7
:10BA6000E5FEA3680DF10302596B01A8FFF7D4FEB0
:10BA7000A3680DF10302996D01A8FFF7CDFEA3683D
:10BA80000DF10302D96D01A8FFF7C6FEA3680DF101
:10BA90000302196B01A8FFF7C9FEA3680DF10302A9
:10BAA000196D01A8FFF7C2FEA368019A5A609DF9BB
:10BAB00003109B680193002399428DF803300DF128
:10BAC000030280F25982494201A8FFF7AFFEA36842
:10BAD0000DF10302996B01A8FFF79EFEA3680DF11B
